:020000040800F2
:10000000A07D01200D0300085D0300085D030008CA
:100010005D0300085D0300085D0300085D03000840
:100020005D0300085D0300085D030008F926000871
:100030005D0300085D0300085D0300085D03000820
:100040005D030008112A0008B52A0008F92A0008F3
:100050005D0300085D0300083D2B0008792B0008B4
:10006000B92B0008F92B0008392C0008792C00085E
:10007000AD2C0008E12C0008152D0008492D0008C2
:100080007D2D0008B12D00085D0300085D03000808
:100090005D0300085D0300085D030008E52D00080E
:1000A0005D0300085D0300085D0300085D030008B0
:1000B000692E00085D0300085D030008A12E0008FA
:1000C000493000085D0300085D0300085D03000877
:1000D0005D0300085D030008D13000085D030008DF
:1000E000F5310008893200085D0300085D0300084F
:1000F0005D0300085D0300085D0300085D03000860
:100100005D030008F52700085D0300085D03000893
:100110005D0300085D0300085D0300085D0300083F
:100120003128000869280008A1280008D9280008FB
:10013000112900085D0300085D0300085D03000845
:10014000492900085D0300085D0300085D030008FD
:10015000A1290008D92900085D0300085D030008F3
:100160005D0300085D0300085D0300085D030008EF
:100170005D0300085D0300085D0300085D030008DF
:100180005D0300085D0300085D0300085D030008CF
:100190005D0300085D0300085D0300085D030008BF
:1001A00000F002F800F0A2F80AA090E8000C8244E7
:1001B0008344AAF10107DA4501D100F097F8AFF2C4
:1001C000090EBAE80F0013F0010F18BFFB1A43F035
:1001D00001031847606E0000806E00000A4410F8AA
:1001E000014B14F00F0508BF10F8015B240908BF8C
:1001F00010F8014B6D1E05D010F8013B6D1E01F883
:10020000013BF9D1641E03D0641E01F8015BFBD1F0
:100210009142E4D37047000000230024002500260B
:10022000103A28BF78C1FBD8520728BF30C148BF59
:100230000B6070476E2900F02183702900F06F84F5
:10024000662906F03484652906F03184672906F0B2
:100250002E84612906F02D8403681B0A28BF41F013
:100260008001692900F0D280642900F0CF807529CF
:1002700000F0CC806F2900F0FD83782900F03B84EA
:10028000E92900F09783E42900F09483F52900F030
:100290009183EF2900F0FA83F82900F03A8403688B
:1002A000DB0928BF41F08001632901F02480732914
:1002B00001F02980E32901F03480F32901F039802D
:1002C000002070471FB506F0EDFB01F05FF8040059
:1002D0000020002106F0D0FB401C606000200021BF
:1002E00006F0B4FBE0601FBD10B510BDDFF80CD008
:1002F000FFF7E8FF05F074F901F0FAF8A0750120A6
:1003000003B4FFF7F1FF03BC01F03CF972B60C48EF
:1003100080F30988022080F31488BFF36F8F03F005
:10032000D3F90848016841F47001016006480047AC
:100330007047000005480649064A074B7047000011
:10034000A075012088ED00E0A1010008A075012042
:10035000A0750120A0790120A0710120FEE7000016
:100360002DE9F04F2DED108AC1F80CD0C3689D46E1
:1003700000F013B800F017B803F026FA002383F357
:1003800011882846A04704F0F1FC03F0F5F904F0C9
:1003900083FA03F019FA00DFFEE7BDEC088ABDEC32
:1003A00008CAFFF7E7BF30BCBDE8C08F7CB51D466B
:1003B00016460C00009001D02044401E074B7B44A1
:1003C0002A4669460190304600F071FA05461CB194
:1003D0000020694600F07EFA28467CBD1D0500001D
:1003E0000FB41CB5084B06AA7B44694600900598DB
:1003F00000F05DFA04460020694600F06BFA2046E2
:100400001CBC5DF814FB0000E90400002DE9F0417C
:100410000646002410687529314616A510D000F054
:1004200099F9002802DA404213A507E031688A07EB
:1004300001D512A502E0490704D511A5012401E068
:1004400000F091F900210A2206F1240709E0B0FB2F
:10045000F2FCB0FBF2F302FB1C003030785418467B
:10046000491C0028F3D123462A463046BDE8F04116
:1004700000F0ABB9000000002D0000002B000000D0
:10048000200000002DE9F05F894604464FF0000A85
:10049000DFF874B1FB44C0F820A02046E16888472B
:1004A000002874D0252806D0D4E901219047206A7D
:1004B000401C2062F1E700265F462046E16888473D
:1004C0002028054607DB312D05D2781910F8200CBD
:1004D00008B10643F1E7B00701D526F00406C4F8D9
:1004E0001CA00027C4F818A02A2D09D0284603F024
:1004F00043FA38B304EB8708303DC8F8185019E0C8
:1005000059F8041B204604EB87029161E168884793
:10051000012F054618D1E069002820DA26F02006D0
:100520001DE0D8F8180000EB800005EB40003038E3
:10053000C8F818002046E1688847054603F01CFA11
:100540000028EED1012F0AD02E2D08D12046E168D7
:1005500088477F1C0546022F46F02006C4DBA069B1
:10056000002803DA404246F00106A061F00701D0FE
:1005700026F010066C2D0BD0682D09D04C2D39D0EB
:100580006A2D35D0742D35D07A2D33D016E038E071
:10059000E1682F4620468847B842054609D16C2FAE
:1005A00026D04FF48060E168064320468847054620
:1005B00004E06C2F1AD04FF4807006430DB3A5F100
:1005C0004100192802D8203546F400664A462946DB
:1005D000204626604E46FFF72DFE80B101280BD045
:1005E000F61D26F0070000F1080956E74020E4E771
:1005F0008020D8E70020D6E706F104094DE7284619
:1006000052E7206A00F002B89C6A000030BCBDE8E6
:10061000C09F032A40F2308010F0030C00F01580D8
:1006200011F8013BBCF1020F624498BF11F801CBF5
:1006300000F8013B38BF11F8013BA2F1040298BF5A
:1006400000F801CB38BF00F8013B11F0030300F0C4
:100650002580083AC0F0088051F8043B083A51F868
:1006600004CBA0E80810F5E7121D5CBF51F8043B6D
:1006700040F8043BAFF30080D20724BF11F8013BE0
:1006800011F801CB48BF11F8012B24BF00F8013B42
:1006900000F801CB48BF00F8012B704710B5203A95
:1006A000C0F00B80B1E81850203AA0E81850B1E82B
:1006B0001850A0E81850BFF4F5AF5FEA027C24BFE1
:1006C000B1E81850A0E8185044BF18C918C0BDE8D8
:1006D00010405FEA827C24BF51F8043B40F8043BA1
:1006E00008BF7047D20728BF31F8023B48BF11F856
:1006F000012B28BF20F8023B48BF00F8012B7047B0
:1007000070477047704770B5044685690068C10638
:1007100001D5302600E02026C00707D070BDD4E9FF
:10072000012130469047206A401C20626D1EF6D59C
:1007300070BD70B5044685690078C00707D170BDEB
:10074000D4E9012120209047206A401C20626D1EC0
:10075000F6D570BD09684A0501D540B27047C90594
:10076000FCD500B2704709684A0501D5C0B2704790
:10077000C905FCD580B2704770B50C460546012A04
:1007800005D02878800600D5EA69002302E001231D
:1007900005E05B1C934202D2E05C0028F9D1A86915
:1007A000E618C01AA861286A184428622846FFF78C
:1007B000AAFF04E0D5E9012114F8010B9047B442E7
:1007C000F8D32846FFF7B5FF70BD2DE9F0470D4679
:1007D00099469246044600F124080168880604D52B
:1007E000E06921F01001216000E00120A84201DD54
:1007F000471B00E00027A1697A1902EB0900081ADB
:10080000A0612078C00602D42046FFF77CFF0026B6
:1008100008E0D4E901211AF806009047206A401C3C
:10082000761C20624E45F4DB2078C0060AD52046AF
:10083000FFF769FF06E0D4E9012130209047206AE4
:10084000401C2062381EA7F10107F4DC07E0D4E960
:10085000012118F805009047206A401C2062281EDC
:10086000A5F10105F3DC2046FFF763FF20780006C1
:1008700002D50220BDE8F0870120FBE7116802687D
:10088000006A530501D508700AE0D30501D5088038
:1008900006E0130603D5C217C1E9000200E00860B4
:1008A0000120704701694A1C02610878704700B551
:1008B0008FB0CDE901310021059105497944CDE999
:1008C000031011466846FFF7DDFD0FB000BD0000C4
:1008D000E5FFFFFF0A6802F8010B0A607047D1E9E3
:1008E00000239A4202D2531C0B6010707047000024
:1008F0002DE9FF5F15468A460446DFF8AC80F844D0
:100900000027D8E900103E46CDE9001010E03AF883
:1009100016106A4602A800F010FD411C07D021788D
:10092000890603D5E269391891420DD80744761C2F
:100930002078800602D5E069B84205DDAE42E6DBEC
:100940003AF816000028E2D1A069C01BA061204639
:10095000FFF7D9FED8E90010CDE90010002017E01C
:100960003AF818106A4602A800F0E7FCB0F1FF3F21
:1009700081460BD000250DF1080B05E0D4E90121DB
:100980001BF8050090476D1C4D45F7D308F1010099
:10099000B0428046E4DB206A384420622046FFF7FC
:1009A000C8FE00F003B80000466600003FBCBDE88A
:1009B000C09F00002DE9F0418046D21D22F00702C1
:1009C0000025D2E90002F52915A614D0011E72F106
:1009D000000106DA0023D0EB030063EB020211A64C
:1009E00008E0D8F800108B0701D50FA602E04907F0
:1009F00001D50EA601251146002408F1240704E0C4
:100A000000F098F830323A55641C50EA0102F7D1F0
:100A10002B46324621464046BDE8F041FFF7D5BEA1
:100A2000000000002D0000002B000000200000004E
:100A300030B4002100F1240408E002F00705D208D8
:100A4000303542EA4372DB086554491C52EA03051B
:100A5000F3D10468002310A2250708D504F0200470
:100A60000C4304D0C46901230CA2641EC46130BCD1
:100A7000FFF7ABBE10B5044621461068FFF773FEC2
:100A800002462046BDE810400023D1E7D21D22F0E7
:100A90000701D1E90023CBE700000000300000008F
:100AA000F0B40D460188090502D5214C7C4402E0D2
:100AB0001F4C7C440E34002100F1240608E002F0B3
:100AC0000F071209E75D42EA03721B097754491CBC
:100AD00052EA0307F3D102780023120704D5702DE0
:100AE00006D009B1022311342246F0BCFFF76DBED7
:100AF00001231034F8E770B504460D46214610680E
:100B0000FFF731FE024629462046BDE8704000232B
:100B1000C6E7D21D22F00703D3E90023C0E703682C
:100B2000126843F0200303600823C3610023B7E782
:100B3000A064000030B5B0F10A024FEA900E71F1E6
:100B400000034EEA817EB0EB0E0061EB91014FEAAB
:100B5000101E4EEA017E10EB0E0041EB11114FEA20
:100B6000102E4EEA016E10EB0E0041EB11214FEA00
:100B7000104E4EEA014E10EB0E0041EB11414018B1
:100B800041F100014FEAD00040EA41704FEAD10143
:100B900010EB80054FEA810444EA907444EB0104B1
:100BA0006D1944EB0404521BA3414FF0000348BFEE
:100BB0000A3200D530BD401C41F1000130BD704704
:100BC0002DE9FF4F0C461E464FF0FF378BB0D2E9A0
:100BD0000001DDF860800A908A46C1F30A5505B924
:100BE0003D46002108464FF00000BAF1000F00F426
:100BF000400005DA00EB80004FF4400101EA5000AC
:100C00004FEA9059B9F1010F00DDB9460A9850EA50
:100C10004A000ED044F61050A5F2FF3545432F147C
:100C2000B8F1000F1ED07542291E1EDDC9F1000269
:100C30001CE0B8F1010F4FF0000001D0302103E0BB
:100C4000F24305E02154401CB042FBDB3046002259
:100C5000002121540B99C1F80880C1E900200FB090
:100C600000F0BAB9BD1B6D1CDEE74A4600DA6942E6
:100C700006A800F0CFFB06AB93E8070003AB83E8C0
:100C8000070050460A9900F084FC8DE80700A0F5A3
:100C900000501F3800900398002D09DD42F21F011B
:100CA0004A46084403A90390684600F0E3FE08E0C2
:100CB000A0F500504A461F3803A90390684600F08B
:100CC000EDFE8DE807000004000C03D04FF0FF306C
:100CD000410800E01046B8F1000F03D00022009256
:100CE00015461EE0751E05D4FFF724FF303262550D
:100CF0006D1EF9D5B3460122084302D000227F1CA5
:100D000004E02078302801D100227F1E002A0997B4
:100D100086D01DE0112D07DAFFF70CFF3032625547
:100D20006D1C50EA0102F5D1084302D00098C8B109
:100D30000EE00021681E05E0235C625C63542254CF
:100D4000401E491C8142F7DBAB46A81B401E0990A0
:100D5000002004F80B000B98099AC0F80880C0E93D
:100D6000002B7CE711264FF0000859E72DE9F04FE2
:100D700088460446D21D22F0070191B0D1E9000156
:100D8000CDE90A0102F0B6FB02460B98C00F01D074
:100D90002D2007E02068810701D52B2002E02021CB
:100DA00001EAC000032A099001D0072A05DB0346A7
:100DB0004146204600F0EEFA0BE12078800601D58E
:100DC000E06900E00620B8F1650F814606D0B8F171
:100DD000660F18D0B8F1670F70D131E00020B9F17B
:100DE000110F009001DB112301E009F101030AAAB0
:100DF00001A90CA8FFF7E4FEDDE90C70002609F15B
:100E00000105834647E001204B4600904FF0004724
:100E10000AAA01A90CA8FFF7D3FEDDE90DB00C99D1
:100E20005D46002610B909F101000D18B9EB050067
:100E300003D4C0F1FF3609F10105A5EB09002BE051
:100E4000B9F1010F01DA4FF001090020B9F1110FDA
:100E50000090484601DD112300E003460AAA01A9DB
:100E60000CA8FFF7ADFEDDE90C704D460026834669
:100E7000207800070AD4AB4500DA5D4601A8012DB1
:100E800004DD411911F8011C302907D04F4502DA61
:100E900017F1040F04DA012082460FE06D1EEEE721
:100EA000002F02DCED1B3E4403E0781CA84200DD6D
:100EB0007D1CB81B00F1010A4FF0004720780007A5
:100EC00003D4AA4501DB4FF0FF3A0021B7F1004FF0
:100ED0000DF143088DF8431024D002202B23002F5E
:100EE00001DA7F422D230A21021EA0F1010000DC5D
:100EF0005FB197FBF1FC97FBF1F201FB1C7C1746FD
:100F00000CF1300C08F801CDEEE7A8F101000370F8
:100F10002188090501D5452100E06521A0F10108DE
:100F200000F8011C09980FA9A1EB0807FF1D00B1EB
:100F30000120411901EBEA70A1693844081A401EEA
:100F4000A0612078C00602D42046FFF7DCFB099898
:100F500028B1D4E901219047206A401C2062207802
:100F6000C00622D52046FFF7CEFB1EE0002E04DB94
:100F7000B34502DD01A8805D00E03020D4E9012105
:100F80009047206A401C2062761CAAF101005FEAAB
:100F9000000A0AD100F0FAF9C0680168405CD4E99F
:100FA00001219047206A401C2062281EA5F10105FE
:100FB000DCDC07E0D4E9012118F8010B9047206A36
:100FC000401C2062381EA7F10107F3DC2046FFF722
:100FD000B0FB032011B043E630BCBDE8C08F000079
:100FE0002DE9F04F04460D46D21D22F0070089B0CE
:100FF000D0E9009248461746394602F07BFA02468D
:10100000F80F01D02D2307E02068810701D52B239D
:1010100002E0202101EAC0038DF820300BB101204D
:1010200000E00020032A824601D0072A04DB29467B
:10103000204600F0AFF93DE12078800601D40D256F
:1010400000E0E569C7F30A560D2D49DA00214FEAA1
:10105000175B08464FF00000002F00F4400007DA4D
:1010600000EB80004FF4400100EBD07001EA60001B
:101070008115012901DD4FF0FF3100224FEA850C77
:10108000BCF1180F06D31346ACF118004FF0805294
:10109000C24003E04FF4801323FA0CF30CF10C0C64
:1010A000BCF1200F04D3ACF1200C09FA0CF001E0E4
:1010B00007FA0CF000294FF0004801DD18B90FE0E5
:1010C0000ED140450CD319EB02095F4121B94045CF
:1010D00002D19F4329EA0209BBEB175F00D0761CBF
:1010E0002088000502D57B48784402E0794878449E
:1010F000193808AA302302F80A30037C0AF10101EA
:10110000002E0AF1020A53546A4602DC4FF0300105
:1011100001E04FF031014FF001088DF8001002D0CE
:10112000A6F2FF3603E059EA470100D06A4E002DCF
:1011300002DC2178090704D54FF002082E218DF832
:101140000110C44600210BE0C7F303433F01C35C19
:10115000491C6D1E02F80830052908F1010801DA62
:10116000002DF1DC00210CE000EB1973491C1B7809
:101170006D1E082902F808304FEA091908F1010824
:1011800001DA002DF0DC2178890602D514E0A8F1FF
:101190000108E04505DD02EB080111F8011C3029CA
:1011A000F5D0B8F1000F07DD02EB080111F8011CC2
:1011B0002E2901D1A8F10108002D05DD3E2102F8FC
:1011C00008106D1E08F10108407C002E02F808008E
:1011D00008F1010804DA2D20764202F8080002E046
:1011E0002B2002F808000A214FF47A70864208F199
:1011F00001080BDB96FBF0F3303302F8083096FB66
:10120000F0F308F1010800FB136601E0642E0CDB2B
:10121000642096FBF0F3303302F8083096FBF0F3CD
:1012200008F1010800FB136601E00A2E06DB96FBBD
:10123000F1F0303002F8080008F1010896FBF1F0F7
:1012400001FB1060303002F80800A16908F10108C4
:1012500008EB050202EB0A00081AA0612078C0061C
:1012600002D42046FFF74FFA216A08AE01EB0A00CC
:10127000206204E0D4E9012116F8010B9047BAF18D
:10128000010AF7D22078C00602D52046FFF73BFAC4
:101290006E4609E016F8010B3E280FD0D4E9012173
:1012A0009047206A401C2062B8F10108F2D2204623
:1012B000FFF73FFA09B0032000F010B8206A284475
:1012C000206203E0D4E90121302090476D1EEBD36A
:1012D000F8E700009F5E000002FCFFFF30BCBDE8A5
:1012E000C08F10B5436913B1AFF3008001E0FFF781
:1012F00043FA012010BD127800F124010A70002287
:101300004A700122EDE711684FF0FF32E9E710B5AE
:10131000436913B1AFF3008001E0FFF7E9FA012060
:1013200010BD128800F1240182840022C2840122AF
:10133000EDE711684FF0FF32E9E770B516460C464D
:10134000054600F01BF8036893F80101012806D058
:10135000FF2C0FD8185D68B101202C7070BDD3F838
:1013600007013246214603F2071303442846BDE82D
:10137000704018474FF0FF3070BD000010B500F00E
:1013800005F8001D10BD00BFF15600000048704771
:10139000607101202DE9F0411F46044603260168D3
:1013A000072A01F4006004DB08B116A505E016A5C4
:1013B00003E008B115A500E015A521F0100020609C
:1013C000A069C01EA0610FB1401EA0612046FFF7BA
:1013D0009AF94FB1D4E9012138469047206A401C60
:1013E0002062C01C206206E0206AFAE7D4E90121ED
:1013F00015F8010B9047761EF8D22046FFF799F9B1
:10140000BDE8F0814E414E006E616E00494E4600CF
:10141000696E66002DE9F047814616468AB033486A
:1014200078440DC88DE80D0030487844801C03AC2A
:101430000DC884E80D0041F69B300844372190FB2D
:10144000F1F290FBF1F5A5F1800501FB12041B3CC4
:1014500002D56442012000E00020DFF890A0804621
:101460000027FA44AAF1BE0A0DE0E00709D032468F
:10147000684607EB47010AEB810100F00FFB8DE89E
:10148000070064107F1C002CEFD1184F7F44AC3F45
:1014900018E0E80714D007EB04100DF1180A90E8E3
:1014A0000E008AE80E00C068F04201D19819089039
:1014B000324606A903A800F0F1FA03AB83E807005F
:1014C0006D10641C002DE4D132466946B8F1000F5E
:1014D00003A802D000F0CEFA01E000F0DFFAC9E97B
:1014E0000001C9F808200AB0BDE8F087F85B0000E9
:1014F00010B50446AFF300802046BDE81040FEF76B
:10150000FFBE00004FF0013C50F8042B51F8043BA3
:101510009A4221D1A2EB0C03934313EACC1317D1C7
:1015200050F8042B51F8043B9A4215D1A2EB0C035E
:10153000934313EACC130BD150F8042B51F8043B1E
:101540009A4209D1A2EB0C03934313EACC13DBD0EC
:101550004FF00000704700BFD01A01BAB1FA81F114
:1015600001F0180122FA01F0CB40C1F12001DBB2F9
:10157000C0B2C01A2CFA01F3D11A914311EAC31177
:10158000E6D1704701491820ABBEFEE726000200F5
:1015900070475FEA400C08BF91F0000F4FEA8C23C0
:1015A0004FEAC12243EA51514FEA1C5018BF00F5DF
:1015B000F0404FEA300018BF41F000415FEA6C5C38
:1015C00000F02980BCF1FF3F08BF40F08040704729
:1015D000130C06BF12044FF0100C4FF0000C130E4A
:1015E00004BF12020CF1080C130F04BF12010CF11E
:1015F000040C930F04BF92000CF1020CD30F04BF34
:1016000052000CF1010C11464FF00002A0F11F0036
:10161000A0EB0C00704711F0004F08BF704731F08D
:1016200000413FF4D5AF0B0C06BF09044FF0100C7E
:101630004FF0000C0B0E04BF09020CF1080C0B0F4D
:1016400004BF09010CF1040C8B0F04BF89000CF1DD
:10165000020CCB0F04BF49000CF1010CCCF12003AC
:10166000A0EB0C0022FA03F302FA0CF241EA0301A8
:1016700000F10100704720F07F4C80EA030023F066
:101680007F47ACEB070303F57C5300F0004003F108
:10169000FF032DE980494FEA154B09B44FEA144383
:1016A00025EA0B4E24EA03480FF2042606EB132723
:1016B00049083E785FEA320203FB0667C7F5000778
:1016C00007FB06F64FEA54374FEAD64606F1020604
:1016D00007FB066CCCF1005C4FEA1C472CEA074C78
:1016E00007FB06F40CFB06F504EB15464FEA9616CD
:1016F00034BF00204FF000404FEAD13706FB07FC13
:101700004FEA1C4C0CFB0BF7D21B03FB0CF761EBF5
:1017100007010CFB0EF7B0EB074072EB17420CFB16
:1017200008F734BFA2EB0742B2EB074261EB174167
:101730004FEA0C444FEA910706FB07FC4FEA1C4CAA
:101740000CFB0BF7B0EBC74072EB573203FB0CF707
:1017500034BFA2EBC742B2EBC74261EB57310CFB7F
:101760000EF7B0EBC70072EB57720CFB08F734BFF3
:10177000A2EBC702B2EBC70261EB5771039F4FEABE
:10178000816141EA921104EBCC044FEAD1374FEA70
:10179000826206FB07FC42EA90124FEA80604FEA41
:1017A0001C4C0CFB0BF7D21B03FB0CF761EB070186
:1017B0000CFB0EF7B0EB074072EB17420CFB08F77F
:1017C00034BFA2EB0742B2EB074261EB17414FEA8D
:1017D0008C554FEA910704EB9C2406FB07FC4FEA6B
:1017E0001C4C0CFB0BF7B0EBC74072EB573203FB02
:1017F0000CF734BFA2EBC742B2EBC74261EB5731E3
:101800000CFB0EF7B0EBC70072EB57720CFB08F73E
:1018100034BFA2EBC702B2EBC70261EB577115EB05
:101820004C254FEA816141EA92114FEA82624FEA08
:10183000D13742EA901206FB07FC44F100044FEA5C
:1018400080604FEA1C4C0CFB0BF7D21B03FB0CF720
:1018500061EB07010CFB0EF7B0EB074072EB174290
:101860000CFB08F734BFA2EB0742B2EB074261EB77
:10187000174115EB1C154FEA813141EA92414FEABD
:10188000823242EA90424FEA80304FEA0C7644F1CD
:10189000000448EA03434EEA0B484FF0000EB2EB57
:1018A000080C71EB030724BF624639464EEB0E0E5F
:1018B0004FF0000B0018524149414BEB0B0BB2EBC0
:1018C000080C71EB03077BF1000B24BF624639461D
:1018D0004EEB0E0E4FF0000B0018524149414BEBFE
:1018E0000B0BB2EB080C71EB03077BF1000B24BF71
:1018F000624639464EEB0E0E51EA020718BF46F01B
:10190000010616EB0E7655F1000254F1000103D5E5
:10191000BDE88901BDE80088BDE88901BDE800484F
:10192000B619524141EB0101A3F1010370478080D8
:101930007F7E7D7C7B7A7978777676757473727129
:1019400071706F6E6E6D6C6C6B6A6A6968686766E1
:1019500066656464636362616160605F5F5E5E5D73
:101960005D5C5C5B5B5A5A595958585757565655E7
:1019700055555454535352525251515050504F4F49
:101980004F4E4E4D4D4D4C4C4C4B4B4B4A4A4A4999
:1019900049494848484747474746464645454544DC
:1019A0004444444343434342424242414141002B69
:1019B00026D4770021D01CB54FEA370703B44FF087
:1019C00010004FF010014FF000000FBCBDE81040B8
:1019D0000BF1010BBBF1010F08BF5FEA170722BF34
:1019E00012F1010211F101014FF0004143F1000336
:1019F00000F0004043EA00007047F9D35708DAE7E7
:101A000046EA064613F1400F4FEA16461FDD13F172
:101A1000200FDFBF16430A46002120335B42C8D0A7
:101A2000C3F1200746EA064602FA07F74FEA1646D0
:101A300046EA0706C3F1200722FA03F201FA07F784
:101A400021FA03F14FF0000342EA0702B1E746EA48
:101A5000020646EA06464FEA164646EA0106BCBFBB
:101A600046EA0646360C4FF000034FF000024FF0F6
:101A700000019EE72DE9C048934630B491E8380054
:101A800007C831EA400C48BF34EA430C03D5FFF7DE
:101A9000F2FDFFF78CFFF0BCBDE800882DE9C048DF
:101AA000934630B491E8380007C810F0804F08BF63
:101AB00013F0804F03D100F005F8FFF778FFF0BC7A
:101AC000BDE8008820F07F4780EA030023F07F4CC8
:101AD00007EB0C03A3F57C5300F00040A3F1FE03D9
:101AE00092F0000F00F0B38095F0000F00F07780C7
:101AF0002DE901494FEA11404FEA144621EA004816
:101B000000FB06FC24EA064708FB06F607FB08F87C
:101B100000FB07F718EB06484CEB164C4FEA124B4C
:101B200018EB07484FEA15464CEB174022EA0B4EDC
:101B30000BFB06FC25EA06470EFB06F607FB0EFE2E
:101B40000BFB07F71EEB064E4CEB164C4FF0000656
:101B50001EEB074E4CEB174B18EB0B0840F1000047
:101B600018EB0E0B58EB000840F100008F1A4FF0F5
:101B700000013CBFC943661B14BFB5EB040C002138
:101B80003CBFC943F61B4FEA17444EEA8E0E27EAC4
:101B900004454FEA1C4704FB07622CEA074C05FB8F
:101BA00007F70CFB05F604FB0CFC16EB074642EBB3
:101BB000174216EB0C4642EB1C421BEB060658EB99
:101BC0000202414146EA9E0601D5BDE80189B619E7
:101BD000524141EB0101A3F10103BDE801894FEA44
:101BE00014454FEA114724EA054621EA074C05FB54
:101BF00007F406FB07F70CFB06F105FB0CFC11EBE9
:101C0000074144EB17444FEA124711EB0C4144EBF8
:101C10001C4422EA074C05FB07F206FB07F70CFB06
:101C200006F605FB0CFC16EB074642EB174216EBDB
:101C30000C4642EB1C456A1854F1000148BF70473E
:101C4000B619524141EB0101A3F10103704795F030
:101C5000000F37D04FEA11424FEA144721EA0246FB
:101C600024EA074C02FB07F106FB07F70CFB06F41E
:101C700002FB0CFC14EB074441EB17414FEA1547FC
:101C800014EB0C4441EB1C4125EA074C02FB07F521
:101C900006FB07F70CFB06F602FB0CFC16EB0746EF
:101CA00045EB174516EB0C4645EB1C42121951F15A
:101CB000000148BF7047B619524141EB0101A3F141
:101CC000010370474FEA14454FEA114724EA0546DD
:101CD00021EA074C05FB07F106FB07F70CFB06F2B0
:101CE0004FF0000605FB0CFC12EB074241EB1741DD
:101CF00012EB0C4251EB1C4148BF7047921841EB6C
:101D00000101A3F101037047024908600249034839
:101D100003F087BAF4040020FC6D00080C000020DA
:101D200004231B2140228360C0E900127047000099
:101D30000146FF20A1F18042B2F5B03204BF00207D
:101D40007047114A914204BF012070470F4A9142E7
:101D500004BF022070470E4A914204BF032070471F
:101D60000C4A914204BF042070470B4A914204BFC1
:101D700005207047094A914204BF06207047084A6F
:101D8000914208BF07207047206001404060014039
:101D90006060014080600140A0600140C06001407F
:101DA000E0600140426B0168002A0A6804BF42F407
:101DB00000320A6010D022F001020A6001680A684D
:101DC00042F400220A6001680A6842F001020A60D7
:101DD00090F84C10032908D090F84C1001290CBF42
:101DE0000221042180F84C107047816B21B90168F1
:101DF0000A6842F002020A6090F8401001290CBF04
:101E0000416C01218164E7E72DE9F04704461A4D52
:101E10001848C4F89400E86C884640F00400E86470
:101E2000164F10263E80DFF858901922314648465A
:101E300001F08AFF3E80E86C40F00400E864402234
:101E40002021484601F080FF40F2823204214FF009
:101E5000904001F079FF40F2823208214FF090402B
:101E600001F072FF0120C4F8908020700020BDE8CE
:101E7000F08700008C070020001002401A04004880
:101E80000004004838B50446007801281CBF012032
:101E900038BD10200B490880002000900A4B4022DA
:101EA0004FF4E871094802F003FF0220207008484F
:101EB0000849D0F8940003F0C9FC0748FFF724FF55
:101EC000002038BD18040048554F0008A8630020C2
:101ED00080620020E0040020C9340008034A102179
:101EE0001180012101700020704700001A04004891
:101EF000C0E900120B46012000FA02F1192218462F
:101F000001F022BF01790068012202FA01F1418348
:101F1000704701790068012202FA01F101837047DC
:101F200001684A690079012303FA00F050404861D2
:101F30007047000038B54B4C4FF4005020804A4D9C
:101F400001461922284601F0FFFE4FF48040208010
:101F500001461922284601F0F7FE40F28222202194
:101F60004FF0904001F0F0FE40F2822280214FF0CD
:101F7000904001F0E9FE40F2A22240214FF0904053
:101F800001F0E2FE4FF4007020800146192228463D
:101F900001F0DAFE354804F030FA0A2002F018FFAA
:101FA0004224324804F024FA3149304804F05CFA03
:101FB0002E4804F02FFA21462C4804F0A5FA0021FF
:101FC0002A4804F0A1FA0446284804F073FA274886
:101FD00004F05EFA254804F01AFA2649032523483E
:101FE0000C704C70812404F003FA21491F4804F05E
:101FF0003BFA1E4804F00EFA21461C4804F084FA0D
:1020000029461A4804F080FA184804F053FA174891
:1020100004F03EFA154804F0FAF980208DF800002B
:10202000154D4FF48074114804F0E2F910490F483F
:1020300004F01AFA0D4804F0EDF96A4601210B4844
:1020400004F0F8F92A462146084804F0F3F9074855
:1020500004F030FA054804F01BFA044804F0D7F9FC
:10206000012038BD18040048000400485C07002027
:102070009C6D0008F0040020F1040020F0B583B04E
:102080000025C0F8DC500446C0F8E0503A48C4E9E6
:102090000212016E41F080710166384E811440F2E7
:1020A0001A32304601F050FE354F40F21A3280218C
:1020B000384601F049FE40F21A324021304601F024
:1020C00043FE40F21A324FF48061304601F03CFE8C
:1020D00040F21A320421384601F036FE6846E168C3
:1020E000FFF71EFE2749A368009A029851F8333083
:1020F000012663612676C4E907526562A562A2687B
:1021000001EBC2014968C4E90B160421E663C4E986
:102110000D15C4E9105004F1140000F027F96846C9
:10212000E168FFF7FDFDA168174F01EB4101019840
:1021300057F82110C4E9131584F8546084F85560E9
:102140004FF020412667C4E91A1004F14C0000F05A
:10215000CFF9A068012200EB400007EB8000816806
:1021600004F14C0000F099F904F1140000F0FAF8C1
:1021700003B00020F0BD0000001002400004004841
:1021800000080048AC6D0008CC6D00082DE9F04750
:102190004FF0000CC0F804C0036101230370054632
:1021A000C06C0F461646016841F400110160A86832
:1021B000DFF8809000EB400009EB80004468606825
:1021C000016821F00F010160207C21684FF00F08A9
:1021D00008FA00F04860207C216808FA00F04860A6
:1021E0002B46154A0321204602F08AFFA868616841
:1021F00000EB400059F820001C3088606068C76020
:1022000060684660E0680168227C08FA02F2914347
:102210000160616843F6A62008606068016841F0CB
:102220000101016005F14C0000F0E7F90020BDE874
:10223000F0870000CC6D000841500008C0E937125B
:102240000020704770B5054680680E4900EB4000DD
:1022500001EB8000446805F14C0000F0E1F9606892
:10226000016821F00F010160217C22680F2000FA33
:1022700001F15160217C884021684860002028706D
:1022800070BD0000CC6D000810B5294C40F2126200
:102290004FF48071204601F057FD40F212624FF476
:1022A0000071204601F050FD40F212624FF480614F
:1022B000204601F049FD40F212624FF400612046D1
:1022C00001F042FD40F212624FF48051204601F0CD
:1022D0003BFD40F212620421164801F035FD03F087
:1022E00001FD154803F000FD1449134803F01EFDDD
:1022F0000124114803F004FB40B1642002F068FDA2
:102300002046641C0A28F4D3012010BD0C484FF469
:102310000071416008498A6A02608A688260CA68FE
:10232000C2600A69026149694161002010BD000074
:1023300000080048000C004878080020946D000850
:10234000606200200B4610B50146054803F011FD00
:10235000002808BF10BD642002F03AFD012010BD26
:102360007808002090F8340070470000002804BF6F
:102370000120704770B504460068FFF7D9FC434D53
:1023800055F8200000281CBF012070BD204600F039
:1023900083F83F480168491C0160006801281FD18B
:1023A0003C48016821F0804101600168A268114346
:1023B0000160016821F47F010160217901290BD1BD
:1023C00001684FF47F03E26893FAA3F3B3FA83F34F
:1023D000521E9A4011430160016841F000410160C2
:1023E0002068016821F47141016020680168226958
:1023F0001143D4E905231A431143016020680168A1
:1024000021F00F010160D4E907010143206802684F
:10241000114301602068816821F45F0181602068B8
:102420008168626A4FF4F8131143A26A93FAA3F326
:10243000B3FA83F3521E9A401143816020684168C9
:1024400001F0070141606FF0FF0191FAA1F1E06A2C
:10245000B1FA81F18840F82292FAA2F2216BB2FA25
:1024600082F2914001432068426811434160206834
:10247000016841F080010160012084F83400206887
:10248000FFF756FC45F82040002070BD786500201D
:10249000F804002000600140704730B490F84CC050
:1024A0000023BCF1000F14BFBCF1FF0F01231BD0B0
:1024B000D0F800C0DCF8004024F0417424F08064BF
:1024C000CCF80040D0F800C001F47F01012ADCF80C
:1024D000004003BF4FF4802545EA0121214344EA2F
:1024E0000121CCF80010026330BC18467047000090
:1024F000002804BF0120704770B5044600683B49BE
:10250000884206D16068012819BFE06801280120CF
:1025100070BD0020012565642063A5642065204608
:1025200000F06AF82068016821F400210160207A37
:102530000128206801680CBF41F0005121F00051D2
:102540000160607A0128206801680CBF41F4001125
:1025500021F4001101602068016821F4E16121F497
:10256000C0410160E068022804D120680168626906
:1025700011430160207C0128206801680CBF41F0F4
:10258000100121F010010160607C012820680168C1
:102590000CBF41F0200121F0200101602068416959
:1025A000134A1140416120684169E269114B1143AE
:1025B000226A93FAA3F3B3FA83F3521E9A40636A32
:1025C0005B1E1A431143416160686063E068A06369
:1025D000A069E063207C84F840002068016841F035
:1025E0000101016084F84C50002070BD0061014081
:1025F00000FF001C0000FF03704710B590F84C105E
:10260000002401291CBF0329012401D0204610BD4C
:1026100001684A6842F00A024A60FFF7C3FBF5E727
:1026200090F84C200021022A1CBF042A012101D06D
:10263000084670470268136823F001031360426B79
:10264000012A04D10268136823F40023136002688E
:10265000136843F00103136090F84C20042A08D05B
:1026600090F84C20022A0CBF0122032280F84C2053
:10267000DEE7826B22B90268136843F0020313603D
:1026800090F84020012A0CBF426C01228264E7E7E7
:10269000154982B011A08969642288611349A1F1AA
:1026A000280001F07BFE124C4FF40070606002F0D5
:1026B000AFFB00BF44F6206269460E4801F044FEBD
:1026C0000028F7D14021009A606800F07DFE0028C4
:1026D000F0D1606840306060ECE7000053696D70D5
:1026E0006C6546530000000048050020506D012035
:1026F0001C050020286D01200648016821F0010119
:102700000160EFF30980683080F30988002080F3CE
:102710001188704734EF00E0184982B013A089692E
:10272000642288611649A1F1280001F037FE16499C
:102730001448086002F06CFB134C00BF44F62062A2
:102740006946104801F000FE0028F7D16068009942
:1027500000281CBF006801F095FE0099A160086880
:10276000E060026812699047E8E7000053656E7305
:102770006F7220436F6E73756D657200480500209F
:10278000C065002098650020FC040020164911A0B7
:102790006422896988611549A1F1280001F0FEFDD4
:1027A000134C0020A06002F033FB00BF01F090FE4C
:1027B000026B0546E260D068011F001FD060B1F5D2
:1027C000004F3CBF101D01F04BF90021284601F0DD
:1027D00044FEEBE753657175656E7469616C204C5E
:1027E0006F6767657200000048050020C869002017
:1027F0000C05002010B500F089FF202080F311881F
:1028000000F0CEFF0848002404602146074802F08B
:10281000D5FA00F0EDFF84F3118800F093FFBDE8D6
:10282000104001F021BB00003C280140B40800200A
:1028300010B500F06BFF0948006810F00F0106D0DA
:10284000074801600748826B0AB1C06B904700F0EF
:1028500079FFBDE8104001F007BB00000004024012
:10286000040402400808002010B500F04FFF09489A
:102870000068C0F3031139B1074A08011060074826
:10288000026C0AB1406C904700F05CFFBDE810405C
:1028900001F0EABA000402400404024008080020E3
:1028A00010B500F033FF09480068C0F3032139B1C7
:1028B000074A080210600748826C0AB1C06C904752
:1028C00000F040FFBDE8104001F0CEBA0004024025
:1028D000040402400808002010B500F017FF094862
:1028E0000068C0F3033139B1074A08031060074894
:1028F000026D0AB1406D904700F024FFBDE8104022
:1029000001F0B2BA000402400404024008080020AA
:1029100010B500F0FBFE09480068C0F3034139B16F
:10292000074A080410600748826D0AB1C06D9047DD
:1029300000F008FFBDE8104001F096BA0004024024
:10294000040402400808002070B500F0DFFE1148C2
:102950000168114A126801F4C00102EA010404602E
:102960000E4D14F4001F05D068681521D0F8AC2076
:102970002846904714F4800F05D068681621D0F8D7
:10298000B4200648904700F0DDFEBDE8704001F03D
:102990006BBA000014040140000401400C00002048
:1029A00010B500F0B3FE09480068C0F3035139B117
:1029B000074A080510600748026E0AB1406E90474A
:1029C00000F0C0FEBDE8104001F04EBA0004024025
:1029D000040402400808002010B500F097FE0948E2
:1029E0000068C0F3036139B1074A08061060074860
:1029F000826E0AB1C06E904700F0A4FEBDE81040A0
:102A000001F032BA00040240040402400808002029
:102A100070B500F07BFE22490868224A126800F473
:102A2000803010400860204D10F4803F05D0686869
:102A30001021D0F88420284690471C4801681C4A81
:102A40001268114001F07804046014F0080F05D0FA
:102A500068682321D0F81C211348904714F0100F08
:102A600005D068682421D0F824210F48904714F03D
:102A7000200F05D068682521D0F82C210A489047FE
:102A800014F0400F05D068682621D0F8342106489C
:102A9000904700F057FEBDE8704001F0E5B9000036
:102AA00014040140000401400C00002034040140E3
:102AB0002004014010B500F029FE0C4908680C4ABA
:102AC000126800F400201040086010F4002F06D0B7
:102AD000084813214068D0F89C200648904700F031
:102AE00031FEBDE8104001F0BFB900001404014000
:102AF000000401400C00002010B500F007FE0C4956
:102B000008680C4A126800F480101040086010F445
:102B1000801F06D0084814214068D0F8A420064839
:102B2000904700F00FFEBDE8104001F09DB9000095
:102B300014040140000401400C00002010B500F016
:102B4000E5FD0A4908680A4A126800F001001040D1
:102B5000086005D007480021406842680548904752
:102B600000F0F0FDBDE8104001F07EB91404014012
:102B7000000401400C00002010B500F0C7FD0B4917
:102B800008680B4A126800F002001040086010F05C
:102B9000020F05D0074801214068C26805489047E8
:102BA00000F0D0FDBDE8104001F05EB91404014012
:102BB000000401400C00002010B500F0A7FD0B49F7
:102BC00008680B4A126800F004001040086010F01A
:102BD000040F05D007480221406842690548904724
:102BE00000F0B0FDBDE8104001F03EB91404014012
:102BF000000401400C00002010B500F087FD0B49D7
:102C000008680B4A126800F008001040086010F0D5
:102C1000080F05D0074803214068C269054890475E
:102C200000F090FDBDE8104001F01EB91404014011
:102C3000000401400C00002010B500F067FD0B49B6
:102C400008680B4A126800F010001040086010F08D
:102C5000100F05D0074804214068426A0548904794
:102C600000F070FDBDE8104001F0FEB81404014012
:102C7000000401400C00002010B500F047FD094899
:102C8000016811F00F0106D0416007480268002A70
:102C90001CBF4068904700F055FDBDE8104001F0B2
:102CA000E3B80000000002400808002010B500F062
:102CB0002DFD09480168C1F3031131B10A014260D9
:102CC000064882680AB1C068904700F03BFDBDE845
:102CD000104001F0C9B800000000024008080020C0
:102CE00010B500F013FD09480168C1F3032131B1AB
:102CF0000A024260064802690AB14069904700F042
:102D000021FDBDE8104001F0AFB800000000024016
:102D10000808002010B500F0F9FC09480168C1F36B
:102D2000033131B10A034260064882690AB1C069C1
:102D3000904700F007FDBDE8104001F095B8000095
:102D4000000002400808002010B500F0DFFC094830
:102D50000168C1F3034131B10A0442600648026AC6
:102D60000AB1406A904700F0EDFCBDE8104001F068
:102D70007BB80000000002400808002010B500F0F9
:102D8000C5FC09480168C1F3035131B10A0542602D
:102D90000648826A0AB1C06A904700F0D3FCBDE8D9
:102DA000104001F061B80000000002400808002057
:102DB00010B500F0ABFC09480168C1F3036131B103
:102DC0000A0642600648026B0AB1406B904700F069
:102DD000B9FCBDE8104001F047B800000000024017
:102DE0000808002070B500F091FC1C4801681C4ADE
:102DF000126801F4787102EA01040460194D14F0BC
:102E0000200F04D068680521C26A2846904714F054
:102E1000400F04D068680621426B1248904714F0B6
:102E2000800F04D068680721C26B0E48904714F4E5
:102E3000807F04D068680821426C0A48904714F4E7
:102E4000007F04D068680921C26C0648904700F0F2
:102E500079FCBDE8704001F007B80000140401409F
:102E6000000401400C00002010B500F04FFC4FF0B2
:102E70008040016911F0020F0CD000240461202071
:102E800080F3118800F08CFC01F0C6FE00F0B0FC6D
:102E900084F3118800F056FCBDE8104000F0E4BF58
:102EA00070B5684C206B856900F030FC216B05F033
:102EB000FE00C861206B15F0100F4FF000064FF0B8
:102EC000200219D0A16841F00401A160416841F4D9
:102ED00080414160016821F04601016082F3118860
:102EE00000F05EFCB11E04F11C0001F067FF00F071
:102EF0007FFC86F311889EE001682378032B14D0B1
:102F000011F0040F18BF15F0040F23D0416AA36A13
:102F10001970A16A491CA162E16A491EE16204BFFD
:102F2000016821F0040114D014E011F0020F18BF61
:102F300015F0020F0ED0216A09788162216A491CBE
:102F40002162616A491E616204BF016821F00201C9
:102F500000D1016015F0800F2DD02078032816D005
:102F6000D4E90B02FF2892BF0021FF204FF08071AF
:102F70006368D3F808C0536841EA00406FF3184310
:102F80004CEA0303184340F48060506053E0606AE9
:102F9000226BFF2886BFFF204FF0807100216368FD
:102FA000D3F808C0536841EA00406FF318434CEA75
:102FB00003031843E9E715F0400F3CD021780329BB
:102FC00024D1E16A11B3226BFF2992BF0023FF21B4
:102FD0004FF08073D4F804C0DCF80850D2F804C075
:102FE00043EA01416FF3184C45EA0C0C4CEA01012D
:102FF00041F480615160016841F004010160416861
:1030000041F4005141600420207014E0416841F413
:1030100080414160016821F04001016082F3118824
:1030200000F0BEFB002104F11C0001F0C7FE00F01F
:10303000DFFB86F3118800F085FBBDE8704000F0EF
:1030400013BF00002807002070B5204C206B856955
:1030500000F05CFB216B05F47C50C861206B0168BB
:1030600021F00601016015F4807F03D0A06840F0D4
:103070000100A06015F4007F03D0A06840F00200BA
:10308000A06015F4806F03D0A06840F00800A06035
:10309000A06815F4805F1CBF40F02000A06078B1EC
:1030A000202080F3118800F07BFB6FF0010104F118
:1030B0001C0001F083FE00F09BFB002080F31188D0
:1030C00000F040FBBDE8704000F0CEBE28070020B5
:1030D0002DE9F04700F01AFB454C676FD7F800A0C8
:1030E000FD693D6215F00F0F4FF020084FF0000909
:1030F0001FD0002615F0080F18BF802615F0010F0D
:1031000018BF46F0200615F0020F18BF46F0400623
:1031100015F0040F18BF46F4807688F3118800F08C
:103120003FFB3146201D00F0DFFF00F061FB89F31B
:10313000118815F4807F0CD088F3118800F030FBE3
:103140004FF40071201D00F0CFFF00F051FB89F318
:10315000118815F0200F0CD088F3118800F020FBA7
:10316000B88CC1B2204602F036FB00F041FB89F377
:1031700011881AF0800F18BF15F0800F18D088F34F
:10318000118800F00DFB04F1300001F07FFA0028F7
:10319000A8BF388508DA0821201D00F0A5FF2AF015
:1031A000800040F04000386000F022FB89F3118875
:1031B00015F0400F16D088F3118800F0F1FA00F0F6
:1031C00071FFD4E91101884205D1A06B18B110211B
:1031D000201D00F089FF2AF04000386000F008FB55
:1031E00089F3118800F0AEFABDE8F04700F03CBE6C
:1031F0008C07002070B500F089FA20480168204A49
:10320000126801F47C4102EA010404601D4D14F4CB
:10321000806F04D068680A21426D2846904714F4F4
:10322000006F04D068680B21C26D1648904714F4F3
:10323000805F04D068680C21426E1248904714F4F5
:10324000005F04D068680D21C26E0E48904714F4E8
:10325000804F04D068680E21426F0A48904714F4EA
:10326000004F04D068680F21C26F0648904700F0F5
:1032700069FABDE8704000F0F7BD00001404014099
:10328000000401400C00002010B500F03FFA0C498A
:1032900008680C4A126800F480201040086010F49E
:1032A000802F06D0084812214068D0F894200648A4
:1032B000904700F047FABDE8104000F0D5BD00008F
:1032C00014040140000401400C0000200549016085
:1032D00040F2A13141600021C0F8A810C0F8AC1044
:1032E000017370475C6D000870B5124CE06C40F0E3
:1032F0000400E064104E032231461048FEF7F8FD4A
:103300000E4801250572E06C40F00200E0640B22DB
:103310000B490C48FEF7ECFD0A480572E06C40F0E2
:103320000400E064012231460748FEF7E1FD06484B
:10333000057270BD0010024000080048E00800203F
:1033400000040048EC080020F8080020017A012958
:1033500018BF7047FEF7DDBD017A012918BF70471D
:10336000FEF7D0BD017A012918BF7047FEF7D8BD1E
:103370000649016040F2A11141600021C0F8BC1370
:10338000C0F8B013C0F8B41301737047786D00082B
:1033900010B5FEF779FF00281CBF012010BD4FF4C7
:1033A00000710748416007490A6802608A688260C4
:1033B000CA68C2600A69026149694161002010BDA2
:1033C000C408002060620020DFF81CC04318DCF84D
:1033D00000C0634584BF0120704710B5FEF7B2FFFF
:1033E000002818BF012010BD6062002038B50446D7
:1033F00000200090044B40224FF41471034801F068
:1034000057FC0348446038BD192700085067002066
:10341000FC04002038B5044600200090054B4022F3
:103420004FF4E871044801F043FC04490860084681
:10343000446038BD8D270008586B01200C05002022
:1034400008B500200090064B40224FF4E871054873
:1034500001F02EFC054904480860084608BD00003C
:1034600091260008E06E0120286D01201C05002037
:103470000149086070470000240500200FB40020B7
:1034800010B50F4C2060F02060604FF08040406A23
:10349000A06003AB802104F11000029AFCF786FFC4
:1034A0001030E06007480068002804BF10BC5DF8D9
:1034B00014FB0068024900F0E5FF10BC5DF814FB46
:1034C000B07001202405002010B54FF08040426A02
:1034D00003A10648FCF784FF05490120087010BDD0
:1034E000245050533A25640A00000000186300205D
:1034F000DC04002003B401984100009850EAC12088
:1035000018BF04204A0D18BF40F0010040F2FF72BE
:10351000B2EB515F08BF40F00200012808BF052050
:1035200002B0704770B582B016460C46054601AB36
:103530006A46314602F018F8DDE90001494281424D
:10354000C8BF0846002100EE100ADFF8BCC0F6EE46
:10355000001AB8EEC00A10EE100A8CED060AB0F19F
:103560007E5F0ADD20EE210A481C41B210EE103ABF
:10357000B3F17E5FF6DC8CED060AEEB3DCED010AFA
:103580009CED000A9FED214ADFED214AC1F12002A6
:1035900002239FED205AB0B203FA02F2D5ED002AC1
:1035A00003EE902A401EB8EEE21AF8EEE33A2D1D23
:1035B000000421EE042A000C32EE601AF0EE420AFA
:1035C00000EE241A31EE000A20EE213AB0EE410A54
:1035D00023EE833A23EE053AFDEEC33A13EE903A1A
:1035E00024F8023BDAD1CCED022A8CED032A8CEDD3
:1035F000041A8CED053A00E003E08CED000ACCEDF6
:10360000010A02B0C8B270BDD40000200000003032
:103610006666663F0000804670B52A4C0546A06885
:10362000F0B9D4F8B00301F0E4F8A060002842D06B
:1036300004604FF08040406AA1688860A1688020E3
:103640004860A16841F21800C860A16804200874AD
:10365000A168E0204874A16810208874A06850B365
:10366000D4F8B413182202EB410101442846802209
:10367000FFF758FFD4F8B4231423A16803EB5222B8
:103680008854D4F8B4038030C4F8B403B0F5006FA4
:1036900038BF70BDD4F8C4030025401CC4F8B4532F
:1036A000C4F8C403D4F8BC03A1682A46006800F03B
:1036B00089FEA56070BDD4F8CC03401CC4F8CC03CF
:1036C00070BD0000FC00002003F0BCB8044820F0EE
:1036D000070104480160044921F007014160704777
:1036E000A77D01200000002000A001200448016BFC
:1036F000002902BF406B0028704702A001F02ABADF
:1037000048050020535623330000000010B5202048
:1037100080F31188084C206B0028A4BF606B002840
:103720001CBF06A001F016FA206B401C206300208D
:1037300080F3118810BD000048050020535623383F
:103740000000000010B5202080F31188074C206B8A
:10375000002801DD606B10B105A001F0FBF9206BC2
:10376000401E2063002080F3118810BD4805002012
:10377000535623390000000010B5064C206B00287A
:1037800007BF606B002804A001F0E4F9012060632A
:1037900010BD0000480500205356233400000000EF
:1037A00010B5064C206B002801DD606B10B104A041
:1037B00001F0D0F90120606310BD00004805002031
:1037C000535623360000000010B5064C206B10B98C
:1037D000606B002802DC04A001F0BCF900206063EB
:1037E00010BD00004805002053562335000000009E
:1037F00010B5064C206B0028C7BF606B002804A0E2
:1038000001F0A8F90020606310BD00004805002009
:1038100053562337000000007047704770477047C9
:103820000648054940F8081B002140F8081B40F8ED
:10383000041C00F0E9BE00006940000828050020D3
:10384000FEE70000F8B51348002500F10C040E4611
:10385000A560C4F8AC0025732A46902101F017F842
:1038600006220D49D4F8AC0000F0F2FFC4F8A860BD
:103870000A4B40224FF414710948009501F018FAE0
:1038800001460848FEF7C0FA0648FEF7FBFA00209A
:10389000F8BD00001800002008090020C5690008D4
:1038A000680C002080620020F8B50026C0F8B463E0
:1038B000C0F8C463C0F8CC63C0F8C863044686612E
:1038C0004AF6E030206126732248A660C4F8B003AF
:1038D0002148C4F8C0030420204DC4E9EE010022B1
:1038E00041F21801D5F8B00300F0D1FF04221C49C1
:1038F000D5F8B00300F0ACFF14221A49D5F8C00384
:1039000000F04CFD5FF00005C5EBC500C0EB851075
:1039100004EB800029461C302269FEF7AFFB6D1CCA
:103920000746042DF0D3104A104904F53270FEF713
:1039300085FC4FF00100002F18BFF8BD20730C4B21
:103940004FF07F024FF434710A48009601F0B0F94D
:103950000020F8BDF0000020184F0020FC000020DF
:10396000B80E0020404F0020294000088939000887
:1039700009570008905F002030380A2801D2012042
:10398000704700207047000010B5064C0121D4F8A4
:10399000C00300F040FDD4F8C803401CC4F8C803BD
:1039A00010BD0000FC00002070B506467E227F217D
:1039B00000F034F858B101281CBF002070BD30223F
:1039C0004521304600F02AF8401C800270BD3E229E
:1039D0004921304600F022F804462F22312130469A
:1039E00000F01CF8054650225321304600F016F82E
:1039F000611CAA1C9140093801FA00F070BD90F8D2
:103A0000D41090F8D72001EB026190F8D62090F8FE
:103A1000D500120402EB00200844704730B44FEA8E
:103A2000511C540901F01F010125491C02F01F031C
:103A300005FA01F15209491E50F82220644521BFC0
:103A400002EA0100D84030BC704750F82C0030BC6E
:103A50000840C3F12001884022FA03F1084370476F
:103A60002DE9F0475FEA010804464FF0000523D036
:103A7000344F354EA94600BF14F8012B802A20D0C0
:103A8000402A3ED0B0683A54401CB060B0F5004FB8
:103A90000FD300BF2B494FF4004201F50040C6F898
:103AA0000890FCF7FBFD706828490022006800F0D0
:103AB00089FC6D1C4545DFD3BDE8F047402000F090
:103AC00047B8B16880207854481CB060B0F5004F0A
:103AD0000ED31C494FF4004201F50040C6F808908F
:103AE000FCF7DCFD706819490022006800F06AFCF0
:103AF000B16802207854481CB060B0F5004FD8D3AC
:103B0000C8E7B16880207854481CB060B0F5004F19
:103B10000ED30C494FF4004201F50040C6F808905E
:103B2000FCF7BCFD706809490022006800F04AFCFF
:103B3000B16801207854481CB060B0F5004FB8D38C
:103B4000A8E70000586B00200C05002058EB00206F
:103B500010B50F4C0D4AA1685054481CA060B0F538
:103B6000004F4FF0000038BF10BD4FF4004207492E
:103B7000A06001F50040FCF791FD60680549002256
:103B8000006800F01FFC012010BD0000586B0020F1
:103B90000C05002058EB00206349CA6C42F0FF027C
:103BA000CA644FF0904142684A60C269CA62826842
:103BB0008A60C268CA6002694A6142690A628269AF
:103BC0004A6202680A60026ACA615849826A4A60A7
:103BD000026CCA62C26A8A60026BCA60426B4A6146
:103BE000826B0A62C26B4A62426A0A60426CCA61B4
:103BF0004F49C26C4A60426ECA62026D8A60426D71
:103C0000CA60826D4A61C26D0A62026E4A62826C4B
:103C10000A60826ECA614749026F4A60D0F8882004
:103C2000CA62426F8A60826FCA60C26F4A61D0F80E
:103C300080200A62D0F884204A62C26E0A60D0F8FE
:103C40008C20CA613C49D0F894204A60D0F8AC205E
:103C5000CA62D0F898208A60D0F89C20CA60D0F858
:103C6000A0204A61D0F8A4200A62D0F8A8204A62B5
:103C7000D0F890200A60D0F8B020CA612F49D0F85F
:103C8000B8204A60D0F8D020CA62D0F8BC208A6040
:103C9000D0F8C020CA60D0F8C4204A61D0F8C8204B
:103CA0000A62D0F8CC204A62D0F8B4200A60D0F87A
:103CB000D420CA612249D0F8DC204A60D0F8F42030
:103CC000CA62D0F8E0208A60D0F8E420CA60D0F858
:103CD000E8204A61D0F8EC200A62D0F8F0204A626D
:103CE000D0F8D8200A60D0F8F820CA611549D0F879
:103CF00000214A60D0F81821CA62D0F804218A60F5
:103D0000D0F80821CA60D0F80C214A61D0F81021FF
:103D10000A62D0F814214A62D0F8FC200A60D0F878
:103D20001C01C861704700000010024000040048F8
:103D300000080048000C004800100048001400482B
:103D400000180048001C00482DE9F84FC2F3C31CBE
:103D500002F00303C2F38008C2F3C107C2F34116A5
:103D6000C2F3C02AC2F3003B0022CDF800C000BF5E
:103D700011F0010F56D04FEA427C4FEADC64DDF8C7
:103D800000C04FEA420E0CFA04F54FF0010C0CFA99
:103D900002F94FF0030C0CFA0EFC4FF00F0E0EFA66
:103DA00004F4D0F804E02EEA090E4EEA080EC0F83A
:103DB00004E0D0F82CE02EEA090E4EEA0A0EC0F814
:103DC0002CE0D0F808E02EEA0C0E4EEA070EC0F800
:103DD00008E0D0F80CE02EEA0C0E4EEA060EC0F811
:103DE0000CE0022B29D0D0F800E02EEA0C0C4CEAB3
:103DF000030CC0F800C0082A2CBFD0F824C0D0F8AB
:103E000020C02CEA040C4CEA050C2CBFC0F824C0DE
:103E1000C0F820C0D0F81CC02CEA090C4CEA0B0CEE
:103E2000C0F81CC0490808BF00F01BB84FEA48089A
:103E3000BF00B6009B00521C9AE7082A34BFD0F896
:103E400020E0D0F824E02EEA04042C4334BF0462BE
:103E50004462046824EA0C0C4CF0020CC0F800C068
:103E6000D8E718BCBDE8E08F10B5202080F311889A
:103E70000F48006810F4006F02BF002080F3118823
:103E800010BDF1EE100AEFF30980A0F168044FF0C5
:103E90008070E0610748006884F30988206600F0BC
:103EA00097FD002814BF04480448A06110BD00001D
:103EB00004ED00E03CEF00E08B03000897030008EE
:103EC000034810B5D0F8AC0000F0AEFC002010BDE7
:103ED00024000020034810B5D0F8B00300F0A4FC83
:103EE000002010BDFC00002003480021006040605D
:103EF00081600061406170474805002038B50F4D72
:103F000004466B460D212046A26B02F013F90028EF
:103F100004BF0098284208D1C0F34320042806D0EB
:103F200005281CBF0628072803D0012038BD002023
:103F300038BD0A2000F04CFFE3E7000008E0FFFD79
:103F40007047704710B50248FDF79CFF002010BD78
:103F50008062002070B50546007B012807BF002461
:103F60000C4E012070BD00BFC4EBC400C0EB841038
:103F700005EB800006EB842100234FF480721C3097
:103F8000FEF704F9641C042CEED3022028730020F1
:103F900070BD0000904F002010B50248FDF79EFF55
:103FA000002010BD8062002070B50546007B02280D
:103FB0000EBF0024012070BDC4EBC400C0EB841010
:103FC00005EB80001C30FEF73DF9641C042CF3D394
:103FD00001202873002070BD022281600277002238
:103FE0004277C0E90E21012142638177064982614F
:103FF00001614A6942611061486100F12401416236
:10400000091D8162C1627047480500200449054AC4
:104010000020C86750685268101AC86770470000CF
:1040200048050020001000E010B5064C0221D4F82D
:10403000C00300F0F0F9D4F8C803401CC4F8C8036A
:1040400010BD0000FC0000200549A1F11C00C16169
:1040500001624FF0FF314162002181627047000030
:10406000640500207047000070B50446202080F3EE
:104070001188FFF781FB00F015F8E01D20F0070123
:1040800007480025D0E90042121B8A4232BF2C4665
:1040900021440160FFF798FB85F31188204670BD2D
:1040A000000000200548016B0029A4BF406B0028D8
:1040B000C8BF704702A000F04DBD000048050020B9
:1040C00053562331300000000448016B19B9406B8E
:1040D0000028C8BF704702A000F03CBD4805002082
:1040E00053562331310000002DE9F0470F460646B4
:1040F000FFF7D8FF3468B44214BF4FF00009BDE8A1
:10410000F087E0683843E06017B12169084219D0B0
:10411000D4E90158FFF7C6FF686B40EA08006863FE
:10412000297F0A2906D00B2904BF296A31EA000039
:1041300003D007E0296A084204D02846C5F8209039
:1041400000F052FC2468B442DBD1BDE8F08770B5C2
:104150000446202080F31188FFF70EFB0026E56857
:10416000E660FFF731FB86F31188284670BD00003A
:104170002DE9F04105461E4617460C46202080F3E7
:104180001188FFF7F9FA2868206007482C6000259D
:104190008069C4E90107C4E90356FFF715FB85F3FD
:1041A0001188BDE8F08100004805002070B5064682
:1041B0000D488469202080F31188FFF7DDFA606BD9
:1041C00010EA060506D10A20266200F0A7FB606B04
:1041D00000EA0605A8436063FFF7F6FA002080F3C3
:1041E0001188284670BD0000480500202DE9F041E7
:1041F00004460F46202080F31188FFF7BDFAE269DC
:10420000002A1CBF20469047FFF74CFFA0680026FD
:1042100050B93946204600F097FD050010D4FFF74D
:1042200041FFA0680028F4D0A068401EA060A169EA
:10423000481CA0610D782169884224BFE068A06114
:10424000FFF7C2FA86F311882846BDE8F08110B462
:104250000024DDF804C0006040608460C1608161BA
:10426000416111440161C0E9073C10BC704770B561
:104270000D460446FFF716FFFFF714FFD4E90501CA
:10428000884205D1A16800291CBF6FF0030070BDF2
:10429000A168491CA160411C61610570D4E9040159
:1042A000814224BFE06860610021204600F040FDAB
:1042B000002070BD2DE9F05F9B4690460D460446F8
:1042C00000264FF0200989F31188C769FFF754FAD7
:1042D000B246002F1CBF2046B847FFF7E3FEA06898
:1042E00080B95946204600F02FFD30B1FFF76CFA37
:1042F0008AF31188304600F024B8FFF7D3FEA06897
:104300000028EED0A068401EA060A069411CA161F9
:10431000007805F8010B2169A069884224BFE06894
:10432000A061FFF751FA8AF31188761CB8F10108F1
:1043300004D089F31188FFF71FFACAE7304600F06E
:1043400000B830BCBDE8C09F70B5044615460E46A7
:10435000202080F31188FFF70FFAFFF7B5FE2946FA
:1043600004F1100000F0D4FB050010D1E068011D3D
:10437000E160006830606168E068884224BF2068BE
:10438000E06004F11C0000F0AFFB00F043FBFFF71E
:104390001BFA002080F31188284670BD10B501601B
:1043A000C1600446816001EB82006060114604F147
:1043B0001C0000F095FB04F11000BDE81040002146
:1043C00000F08EBB70B5044615460E46202080F3E3
:1043D0001188FFF7D1F9FFF777FE294604F11C0099
:1043E00000F096FB05000FD1A068011DA1600660DA
:1043F000D4E90101814224BF2068A06004F11000CB
:1044000000F072FB00F006FBFFF7DEF9002080F3FE
:104410001188284670BD70B50D460446FFF742FE70
:10442000FFF740FE606A0028DCBF4FF0FF3070BD30
:10443000FFF738FE606A401E6062A068011DA1603F
:104440000560D4E90101814224BF2068A06004F125
:10445000100000F049FB002070BD70B50C46054609
:10446000202282F31188FFF787F9FFF72DFE2146FE
:10447000284600F0FDFAFFF7A7F9002080F3118825
:1044800070BD000070B5054610480E4684692020B6
:1044900080F31188FFF770F905F128002062266388
:1044A0002060E96A61600C60EC62287F0E2804BF1E
:1044B000284600F099FA0C2000F030FA246AFFF741
:1044C00083F9002080F31188204670BD4805002044
:1044D00070B5202080F31188FFF74EF90C4EB469B7
:1044E000FFF7E0FD54F8280F0025A04204BF0E207E
:1044F00000F014FAB06950F8284F21680160486054
:104500000D202077FFF760F985F31188204670BDF4
:104510004805002010B50446202181F31188FFF7DB
:104520002BF9204600F006F8FFF74EF9002080F343
:10453000118810BD70B5064632488569FFF7C4FD85
:10454000B068002859D08168AA68914242D282603E
:10455000017F002936D0062902D007291CD039E076
:10456000D0E900121160D0E900124A60026A1146D7
:104570000968914204D0D1F808C083689C45F7D2FD
:1045800001604A68426010604860006AAA688068FA
:1045900081689142DBD31DE0D0E900121160D0E9BF
:1045A00000124A60026A11460968914204D0D1F8AB
:1045B00008C083689C45F7D201604A684260106079
:1045C000486007E0D0E900121160D0E900124A60AB
:1045D00000F00AFA34462468B44203D0A168A868FF
:1045E0008142F8D22C6060686860056065602E6268
:1045F000BDE87040062000F091B9B560A86BF0608E
:10460000AE6370BD4805002000600021C0E90101D3
:10461000704700002DE9F04105461B48D0F818808E
:10462000202080F31188FFF7A7F8E868C8F8380061
:10463000FFF74AFD28680027A84208BFAF601DD0D9
:10464000D8E90E4664B100BFFFF73EFD2068A042E6
:104650001CBF8068B04288BF0646E468002CF3D1D6
:10466000C8F808602868016829604D60A860816BFF
:10467000E960856300F0B8F900F0CCF9FFF7A4F821
:1046800087F31188BDE8F0814805002070B5044625
:10469000FFF708FDFFF706FDD4E90510814205D1BB
:1046A000A16800291CBF6FF0020070BDA168491C01
:1046B000A160411CA16105782069814224BFE068A6
:1046C000A0610021204600F033FB284670BDDDF8D4
:1046D00000C0006040608260C1608161416111443E
:1046E0000161C0E9073C70472DE9F041044690465E
:1046F0000F46202080F31188FFF73EF8FFF7D2FC29
:10470000A068002688B94146204600F01DFB050040
:1047100006D5FFF759F886F311882846BDE8F081E1
:10472000FFF7C0FCA0680028EDD0A068401EA06084
:104730006069411C61610770D4E90401814224BFB2
:10474000E0686061E16900291CBF20468847FFF7E7
:104750003BF886F311880020BDE8F0812DE9F05F79
:104760009B4617460D46044600264FF0200989F364
:104770001188D0F81C80FEF7FFFFB246FFF792FCCD
:10478000A06880B95946204600F0DEFA30B1FFF744
:104790001BF88AF31188304600F028B8FFF782FC36
:1047A000A0680028EED0A068401EA060606915F8DF
:1047B000011B421C62610170D4E90401814224BFE3
:1047C000E0686061B8F1000F1CBF2046C047FEF7EB
:1047D000FBFF8AF31188761C7F1E04D089F31188B1
:1047E000FEF7CAFFCAE7304600F000B830BCBDE8AB
:1047F000C09F10B50446202080F31188FEF7BCFF4F
:10480000FFF750FC206810B10168216004E0A16846
:1048100000291CBF606888470446FEF7D5FF0020CA
:1048200080F31188204610BD70B505460C46202047
:1048300080F31188FEF7A0FFFFF734FC28682060A2
:104840002C60FEF7C1FF002080F3118870BD0000CE
:10485000002A08BF70472DE9F04115460C46064670
:1048600000274FF0200800BF88F31188FEF784FF6F
:10487000FFF718FC306820603460FEF7A5FF87F36F
:10488000118870686D1E0444EED1BDE8F0810023EC
:104890000360C0E901127047DFF838C06046DCF8F9
:1048A000181002681368036058600120CCF81820C3
:1048B0001077002008778A68604600688368934212
:1048C000FBD8086042684A6011604160DCF818005B
:1048D000FBF746BD4805002070B50F4D2946AC6971
:1048E000086802680A6051600121A8610177FFF73A
:1048F000D9FB00202077A1682846006882688A4298
:10490000FBD22060416861600C6044602146A86968
:10491000BDE87040FBF724BD4805002010B50446F3
:10492000FFF7D2FB094B1A4699690C771068D0F84B
:1049300000C0C2F800C0CCF80420012298610277C0
:104940009869BDE81040FBF70BBD0000480500204A
:10495000F0B585B00F460546FFF7B6FB1A4CB7F128
:10496000FF3F4FF001061CD0184A39466846A3693C
:1049700000F0AAFAFFF7A8FBA16922460D7710689C
:10498000036813605A60A0610677A069FBF7E8FC32
:10499000FFF788FB039800281CBF684600F054FA14
:1049A0000DE0FFF791FBA169074A0D7710680368D6
:1049B00013605A60A0610677A069FBF7D1FCA0697B
:1049C000006A05B0F0BD0000480500203969000804
:1049D0000449086889698068896888428CBF012019
:1049E000002070474805002010B50446FFF75AFB29
:1049F000002020770649A06809688A688242FBD2B5
:104A0000216048686060046020464C6010BD000072
:104A10004805002070B5FFF757FBFFF743FBDFF8B1
:104A20004CC00022DCF80000DCF8181083688C68A9
:104A3000A34298BF70BD01230C4C056825606C60D3
:104A4000CCF8180003770A778A68204600688368E4
:104A50009342FBD8086042684A6011604160DCF80C
:104A60001800BDE87040FBF77BBC00004805002043
:104A70002DE9F0410C460546FFF726FB174E2C6248
:104A8000A868B4690027A16888420FD8FFF70AFB1D
:104A90002F77A868314609688A688242FBD229606C
:104AA0004868686005604D60BDE8F081FFF7FAFA7C
:104AB00027770A49A06809688A688242FBD2216088
:104AC0004868606004604C600120B5612877214629
:104AD0002846BDE8F041FBF743BC00004805002034
:104AE0000060C0E90101704710B50446FFF7DAFA2B
:104AF000A068401CA0600028C8BF10BD20680168E5
:104B000021604C6000210162BDE81040FFF76CBFDE
:104B100070B50D460446FFF7D7FAA068401EA060A6
:104B20005CBF002070BD75B1094881690C62806965
:104B3000046061684160086060602946BDE87040BB
:104B40000520FFF705BF401CA0604FF0FF3070BD8F
:104B50004805002072B60149C862FEE748050020FA
:104B600038B5244800250560001D01684FF6FF0296
:104B7000114041F4407141F0FD7141F080610160EC
:104B80001D48016841F0807101601C48016841F0D6
:104B9000010101601A49102081F8140DC91C202060
:104BA00081F8140DFFF7A0F9FFF74EFAFFF72EFA80
:104BB000FEF78CFDFEF734FE124C402104F1380064
:104BC000FFF70AFA0121A0610177FEF78FFD85F357
:104BD000118862B60C48A1690C4B012288614FF420
:104BE000B07104F18000009500F062F808A18161C5
:104BF00038BD000008ED00E0FCED00E0001000E032
:104C00000BE000E048050020B66A000841380008C3
:104C100069646C65000000002DE9F047FFF742FA77
:104C2000FFF740FA214D4FF08049EC69D9F8240094
:104C3000AA6AA168821A05F11C0691429CBF00274E
:104C40004FF0200A20D8A86A0844A862206846606D
:104C50002068E861D4F80C80E760E869B04208BFDA
:104C600001F0C8FDFEF7C4FD87F311882069C04735
:104C70008AF31188FEF794FDEC69D9F82400AA6A3A
:104C8000A168821A9142DED9B44208BFBDE8F0871C
:104C9000A96AA2681144091A022904D3BDE8F047A1
:104CA000084401F09BBD0221F8E700004805002000
:104CB0002DE9F04104461E4615460F46202080F39C
:104CC0001188DDF81880FEF757FDFFF7EBF9E019C2
:104CD0006438E0600664E0680026C0F84480E1685B
:104CE000114808660220A56020776677C4E90E6542
:104CF00001206663A0770D48A6612061416961616A
:104D00000C61446104F124006062001DA062E06255
:104D100000212046FFF7ACFEFEF756FD86F3118812
:104D20002046BDE8F0810000790300084805002016
:104D30000268824208BF70470346106818604360EB
:104D400010461162FFF750BE002904BF4FF0FF303C
:104D50007047054A92691060436853601A60426068
:104D60000420FFF7F5BD00004805002070B505469A
:104D7000202080F31188FEF7FFFC0F48846925622C
:104D8000606A04F12405A84206D001686162FFF759
:104D90002BFE606AA842F8D1607F10F0030F05D1A6
:104DA000D4E904010861D4E904014161BDE870401F
:104DB0000F20FFF7B3BD0000480500200246006841
:104DC000002808BF7047002313600162FFF70CBE84
:104DD00010B50446202080F31188FEF7CDFC214653
:104DE0000820FFF7B5FDFEF7EFFC002080F31188E7
:104DF00010BD000010B5054CA169016008620320D8
:104E0000FFF78CFDA069006A10BD00004805002076
:104E100010B5202080F31188FEF7AEFCFFF754F99F
:104E2000FFF752F9074800240168806989688068A3
:104E3000814228BFFFF750FDFEF7C6FC84F31188BE
:104E400010BD00004805002010B50446FFF72AF900
:104E50001C48002200F11C01C369A3420FD0D4E911
:104E600000031860D4E900034360E26020688842D0
:104E700008BF10BD8168A2681144816010BD23681D
:104E8000C3615960E260C2698A4203D1BDE8104043
:104E900001F0B0BC9168A368194491604FF0804262
:104EA000536A826A981A884228BF10BD091A0229DB
:104EB00005D30844BDE81040104401F08FBC022126
:104EC000F7E70000480500202DE9F0411F4616468F
:104ED0000D460446FFF7E6F84FF08040C4E903674B
:104EE000406A022D31D31A4E06F11C01F2698A4242
:104EF0000BD1F4613462B0622160C4E90115B06A7B
:104F00002844BDE8F04101F06DBC4119B06A0D1AAA
:104F10009168A94284BF284401F060FCF06981686F
:104F2000A94204D200686D1A8168A942FAD32060B0
:104F3000416861600C604460A5608168491B8160C4
:104F40004FF0FF307062BDE8F0810225CBE7000032
:104F5000480500203549364D86B089692FA04FF4A9
:104F600079738861D5F8940002226946001DFFF725
:104F7000FFF8DFF8C0A005F1A80905F10108002637
:104F80004FF0FF30FFF712F96846FFF7E0F810F036
:104F9000040F20D0D5F89400002380220168D1F8B6
:104FA0001CC02549E04707004FF0000413D000BFA4
:104FB000D5F8840019F8041000F80810D5F884001A
:104FC000401CC5F88400802800D3FEE70A2915D0CC
:104FD000641CBC42ECD39AF800000028D0D0D5F86D
:104FE00090001649002818BFFFF74CFAD5F8880042
:104FF000401CC5F888008AF80060C1E700F8086026
:10500000D5F89000691C002818BFFFF73BFAD5F8C7
:105010008800401CC5E92160DAE70000636F6D6D10
:105020007320746872656164000000004805002008
:1050300080620020DC040020286300201863002028
:1050400070B504460D46202080F31188FEF7A8FBBA
:1050500015F0080F1CBF10A0FFF77CFD6068411C15
:1050600061602069002610B1814228BF267015F0CA
:10507000020F08D0D4F8E00000B18047FEF7B8FB7B
:1050800086F3118870BD15F0040F1CBFD4F8DC0046
:105090000028F2D1F2E70000444D41206661696CBE
:1050A00075726500114810B400210160104B114A5F
:1050B000084600BF00EB800C03EB8C0CDCF80440CE
:1050C000216042F83010DCF818C0CCF8001002EB78
:1050D000C00C801CCCF808100E28EBDB06494FF002
:1050E000FF3048600549086010BC7047140000207C
:1050F000DC6A0008080800200000024004040240A6
:105100002DE9F041274D044690F811C0012628688A
:1051100006FA0CF707421CBF0120BDE8F081224FC0
:1051200010F07F0F47F83C2094F811C007EBCC0C2F
:10513000CCF804301D4B05D1D3F848C04CF0010C1D
:10514000C3F848C010F47E5F05D1D3F848C04CF0D6
:10515000020CC3F848C06368D3F800C02CF00F0CF1
:10516000C3F800C0237C4FF00F0C0CFA03F3D4F803
:1051700000C0CCF80430D4F804C00023CCF80030D0
:10518000A368034204D1002A1CBFA07C00F001FBED
:10519000607C296806FA00F0084328600020BDE81A
:1051A000F0810000140000200808002000100240D8
:1051B00070B50446407C144D012101FA00F02968C5
:1051C00021EA00002860A168014204BFA07C00F031
:1051D000CFFA0021627C0D4840F83210627C00EB6F
:1051E000C200416029680A4811F07F0F03D1826C28
:1051F00022F00102826411F47E5F18BF70BD816CE1
:1052000021F00201816470BD140000200808002014
:105210000010024000F0D8B8012101700021416067
:10522000704770B504460D46202080F31188FEF7C4
:10523000A3FA2046656000F0CDF802202070FEF74A
:10524000C3FA002080F3118870BD000001F01F0236
:10525000012330B403FA02F210291AD245684FEA4A
:10526000817C8B0815F831504FEA1C7C0F2404FA1E
:105270000CF4C5F3031505FA0CFC9B0003F1804305
:1052800003F580339D6825EA040444EA0C0CC3F856
:1052900008C0042303EBC10C202930D2294B1A4249
:1052A0001CBF30BC7047436813F8313013F0010F56
:1052B000254B1C6814BF144394431C60436813F8C7
:1052C000311011F0020F21490B6814BF13439343AF
:1052D0000B60406850F80C301D48011D3BB103685D
:1052E0001343036008689043086030BC70470B6844
:1052F00013430B6001689143016030BC704732F08A
:1053000078031CBF30BC7047436813F8313013F08A
:10531000010F104B1C6814BF144394431C60436876
:1053200013F8311011F0020F0B490B6814BF13432F
:1053300093430B60406850F80C300848011D002B67
:10534000D5D0CCE7000082FF080401400C040140E6
:1053500000040140280401402C04014020040140C5
:1053600010B50621084600F014FA0621072000F0C7
:1053700010FA0621082000F00CFA0621092000F09E
:1053800008FA06210A2000F004FA0621172000F08E
:1053900000FA0621282000F0FCF90621012000F087
:1053A000F8F90621292000F0F4F90621022000F086
:1053B000F0F90621032000F0ECF90621BDE81040C9
:1053C000402000F0E6B900000148FFF725BF0000CB
:1053D0000C0000202DE9F05F05460078012808BF89
:1053E000FFF7BEFF0024224EDFF888A0371D07F12B
:1053F00004084FF0010B08F10409686810F8340044
:1054000010F0040F04D021462846FFF71FFF2AE0C2
:1054100004F01F000BFA00F0202C11D231688143F8
:105420003160396881433960D8F800108143C8F889
:105430000010D9F800108143C9F800100E4911E09E
:10544000DAF800108143CAF800100C490A68824358
:105450000A60091D0A6882430A60091D0A688243BE
:105460000A6007490860641C272CC6D300F00AB8FC
:1054700000040140200401401404014024040140C0
:105480003404014030BCBDE8C09F00000248006801
:10549000002808BF70470047F40400204FF0FF3198
:1054A0000C30FEF7A3BE0C30FEF7A0BE10B500F026
:1054B00015F80948FEF770FBFFF7ACFE00F03CF86A
:1054C00000F0A4F900F00EFC00F095FFFEF7CAFD15
:1054D000BDE8104001F080B93C6C00081548816AB5
:1054E0004FF0FF32826200218162C36AC262C162F0
:1054F000036B02630163836B63F080538363816397
:10550000C36BC263C163036C02640164826D42F0C9
:1055100080528265D0F8902002F44072B2F5007F8C
:1055200005D04FF48032C0F89020C0F89010FFF7FB
:10553000B9BD00000010024000F008B8012100F8D9
:10554000041B002140F8081BFFF75EB810B50448A3
:10555000FFF7F4FF02480021C1610249016310BD59
:105560002807002000540040002908BF704710B4ED
:10557000001F11F0010F10D04468D2F800C064453C
:10558000C8BFA446C2F800C04468D3F800C0644550
:10559000D8BFA446001DC3F800C05FEA510C04BF89
:1055A00010BC7047446811688C42C8BF2146116026
:1055B000446819688C42D8BF214619608468116814
:1055C0008C42C8BF21461160846819688C42D8BFDC
:1055D000214608301960BCF1010CE3D110BC7047C2
:1055E000FFF764FFFFF7BCFAFDF77EFE00243C489E
:1055F000FDF7B2FE4FF49670FFF7EAFB3848FDF76F
:10560000A5FE6420FFF7E4FB3648FDF7A5FE4FF446
:105610009670FFF7DDFB3348FDF798FE6420FFF737
:10562000D7FB3148FDF798FE4FF49670FFF7D0FB9B
:105630002D48FDF78BFE6420FFF7CAFB641C062C87
:10564000D5D3FCF777FCFDF7A3FE70B12448FDF736
:1056500089FE2448FDF786FE2348FDF783FE00BF40
:105660004FF44870FFF7B4FBFAE741F28830FFF7D8
:10567000AFFBFDF7E5FEFDF7CDFE0446FDF7F8FEB6
:105680001AA0FDF7FBFE2046FDF7B0FE05461A48BE
:10569000FDF76EFE184C2946206882682046904728
:1056A00020680268204690471448FDF70FFE134813
:1056B000294600688268114890470A48FDF74CFE69
:1056C0000FA0FDF7DBFE4FF47A70FFF781FB054872
:1056D000FDF73CFE42F22830FFF77AFBEDE70000D1
:1056E000EC080020E0080020F808002053746172E4
:1056F0007475700A00000000FC00002024000020E7
:105700005469636B0A000000124982B00EA08969D7
:105710008861FFF77DFB104C104D00BF4FF0FF324A
:105720006946D4F8C003FEF70FFE0028F6D10098B2
:10573000012808BF094804D0022808BF05F50070F9
:10574000ECD1FDF769FFE9E76D6D69635F73656E25
:10575000736F720048050020FC000020904F00206D
:105760000248016841F08001016070470044004038
:1057700000F01F01012202FA01F14209920002F138
:10578000E022C2F8801100F1E020002180F800142E
:10579000704700F1E022090182F8001400F01F02B6
:1057A000012191404009800000F1E020C0F8801202
:1057B000C0F8001170474FF0FF323030FEF794BF51
:1057C0003030FEF791BF4FF0FF330C30FEF772BD63
:1057D0000C30FEF76FBD70B50D460446FEF762FC57
:1057E000FEF760FC606918B90421201DFEF77CFCFF
:1057F000294604F10C00FEF73AFD0028A8BF70BD51
:105800008021201DBDE87040FEF76EBC00F032B86C
:1058100038B504460C482060201D606001202072CD
:1058200015460B46102204F1540104F10C000094BB
:10583000FEF70DFD2B46102204F1640104F1300047
:105840000094FEF744FF38BD1C6C000870B5044698
:105850000D46202080F31188FDF78EFF2946204653
:1058600000F022F802202072FDF7AEFF002080F346
:10587000118870BD10B5084A00210848FFF7C8FF1D
:10588000064807494167074981670C21BDE8104078
:105890002620FFF77EBF0000615700088C0700201C
:1058A0000044004000B4C404002908BF1149027A32
:1058B000012A04BF104A824204D1104A936D43F476
:1058C00000339365D0E91D200B68B0FBF3F0D06086
:1058D000886840F040005060C86840F00100906067
:1058E000486840F22D11084310604FF0FF301062FD
:1058F00070470000CC6A00088C07002000100240AE
:105900002DE9F047044692B003202071002620467E
:1059100000F094FC00221146204600F0C4FB6B46C8
:105920004FF4D5720821204600F004FCBF4F4FF021
:1059300002094FF00108002839D06B4600223721B8
:10594000204600F0F7FB002806BF00983842C4F854
:10595000309005D1002220461146266300F0A3FBBB
:1059600094F8300000F00F00022804BFDFF8C0A256
:10597000002531D001280CBFDFF8B8A2DFF8B8A2AB
:1059800000256B4600223721204600F0D3FB00287B
:1059900004BF0098384240F03F816B4652462921AF
:1059A000204600F08EFB002840F036812EE0C4F83F
:1059B00030800098C0F30320012840F02D816B4611
:1059C00000223721204600F0B5FB002804BF0098D4
:1059D000384240F02181C3E76B4652460121204600
:1059E00000F06FFB002840F01781009810F0004F86
:1059F00004D0009810F0804F14D00FE06D1C642D7F
:105A000080F00A816420FFF7E3F9E5E7009810F0E1
:105A1000004F12D0009810F0804F03D0206B40F060
:105A20001001216304F1080300220221204600F046
:105A3000F5FA002840F0F08007E06D1C642D80F03E
:105A4000EB806420FFF7C4F99BE704F138030022E0
:105A50000321204600F06EFB002840F0DD8004F1B9
:105A6000180309212046A26B00F0D8FA002840F064
:105A7000D38001AB07212046A26B00F05BFB00281E
:105A80006CD194F83010204601F00F01022910D09B
:105A9000A24635467E227F211830FDF7BFFFB8B3FE
:105AA0000623402202A95046009600F057FA78B12A
:105AB000B2E0C16A3546096849B3604A6B460621BF
:105AC00000F038FB002804BF009838421ED021E0C7
:105AD000BDF8140040BA10F0020F1BD058480090D7
